:100000000C94D2000C94FA000C94FA000C94FA00B0
:100010000C94FA000C94FA000C94FA000C94FA0078
:100020000C94FA000C94FA000C94FA000C94FA0068
:100030000C94FA000C94AF150C94FA000C94FA008E
:100040000C9465150C94FA000C9433150C940D1552
:100050000C94FA000C94FA000C94FA000C94FA0038
:100060000C94FA000C94FA00706173737764007654
:10007000657273696F6E2E74787400312E3233346A
:100080006500456E7465722061646D696E69737494
:10009000726174696F6E2050494E3A2000FCFDFE7B
:1000A000F82A2A2A2041444D494E204D4F444520EC
:1000B0002A2A2A0043616D6572614B65792044727A
:1000C00069766572202D2032303139005B3F5D202A
:1000D0002D2068656C70005B6C5D697374206669C7
:1000E0006C65730A5B735D686F772066696C652069
:1000F0003C6E756D6265723E005B635D68616E6744
:1001000065206672657175656E6379203C6E756DEC
:100110006265723E0A5B645D756D70206375727214
:10012000656E74206672657175656E6379004E69DF
:1001300063652C207472792120457272436F646567
:100140003A2000383730373831353264326239344A
:100150003439373338653639653061666563306305
:1001600030336200456E7465722061646D696E693A
:1001700073747261746F7227732070617373776F19
:1001800072643A20006F0068004E6963652C207429
:1001900072792120457272436F64653A20007B00BA
:1001A0004301C81811241FBECFEFD8E0DEBFCDBF7A
:1001B00021E0ACE3B1E001C01D92AC3EB207E1F733
:1001C00011E0A0E0B1E0ECEFF4E302C005900D9285
:1001D000AC33B107D9F710E0C2EDD0E004C02197ED
:1001E000FE010E944119C13DD107C9F70E94D615F1
:1001F0000C947C1A0C940000AF92BF92CF92DF92C5
:10020000EF92FF920F931F93CF93DF936C017B01CB
:100210008B01040F151FEB015E01AE18BF08C0175C
:10022000D10759F06991D601ED91FC910190F081CF
:10023000E02DC6010995892B79F7C501DF91CF9192
:100240001F910F91FF90EF90DF90CF90BF90AF90F4
:100250000895FC01538D448D252F30E0842F90E0CC
:10026000821B930B541710F0CF96089501970895B1
:10027000FC01918D828D981761F0A28DAE0FBF2F7A
:10028000B11D5D968C91928D9F5F9F73928F90E0D0
:1002900008958FEF9FEF0895FC01918D828D98173F
:1002A00031F0828DE80FF11D858D90E008958FEF7C
:1002B0009FEF08952FB7F8948091470190914801DE
:1002C000A0914901B0914A012FBF809353019093AF
:1002D0005401A0935501B09356018BE491E00E9424
:1002E0004C0197FF26C02FB7F89480914701909159
:1002F0004801A0914901B0914A012FBF409153019B
:10030000509154016091550170915601841B950BD9
:10031000A60BB70B40914F015091500160915101D4
:100320007091520184179507A607B707B0F28FEFB7
:100330009FEF0895CF92DF92EF92FF92CF930E94AA
:100340005A01FC0197FD4EC08D32910521F0C097F6
:100350000A9708F040C0C12CD12C7601C0E0E130F2
:10036000F105D1F0ED32F105D9F1CF01C0970A972F
:1003700098F4AAE0B0E0A70196010E9405196F0168
:10038000FF0FEE08FF08C60ED71EE81EF91E80E319
:10039000C81AD108E108F1088BE491E00E94380105
:1003A0000E945A01FC01C0970A97C8F2E130F1059A
:1003B000B1F2CC2341F0F094E094D094C094C11CED
:1003C000D11CE11CF11CC701B601CF91FF90EF9049
:1003D000DF90CF9008958BE491E00E943801AFCF79
:1003E000C1E0DACFC12CD12C7601EDCFFC01918D8B
:1003F000228D892F90E0805C9F4F821B91098F7323
:10040000992708958BE491E00E94F60121E0892B61
:1004100009F420E0822F089580E090E0892B29F0F4
:100420000E94020281110C9400000895FC01A48D29
:10043000A80FB92FB11DA35ABF4F2C91848D90E006
:1004400001968F739927848FA689B7892C93A089E9
:10045000B1898C91837080648C93938D848D981373
:1004600006C00288F389E02D80818F7D8083089506
:10047000EF92FF920F931F93CF93DF93EC0181E0F4
:10048000888F9B8D8C8D98131AC0E889F98980819B
:1004900085FF15C09FB7F894EE89FF896083E889CE
:1004A000F98980818370806480839FBF81E090E0C0
:1004B000DF91CF911F910F91FF90EF900895F62E4D
:1004C0000B8D10E00F5F1F4F0F731127E02E8C8DE7
:1004D0008E110CC00FB607FCFACFE889F98980812C
:1004E00085FFF5CFCE010E941602F1CFEB8DEC0F08
:1004F000FD2FF11DE35AFF4FF0829FB7F8940B8F49
:10050000EA89FB8980818062CFCF0F931F93CF93BD
:10051000DF938C01D0E0C0E0F801EC0FFD1F649187
:10052000662341F08BE491E00E943802892B11F0A0
:100530002196F2CFCE01DF91CF911F910F910895B7
:10054000CF93DF93EC01888D8823B9F0AA89BB890A
:10055000E889F9898C9185FD03C0808186FD0DC0F5
:100560000FB607FCF7CF8C9185FFF2CF808185FF16
:10057000EDCFCE010E941602E9CFDF91CF91089511
:100580003FB7F89480913F0190914001A0914101C3
:10059000B091420126B5A89B05C02F3F19F00196E6
:1005A000A11DB11D3FBFBA2FA92F982F8827BC01CD
:1005B000CD01620F711D811D911D42E0660F771FF5
:1005C000881F991F4A95D1F708958F929F92AF92F5
:1005D000BF92CF92DF92EF92FF924B015C010E949B
:1005E000C0026B017C010E94C0026C197D098E095A
:1005F0009F09683E734081059105A8F321E0821AA6
:100600009108A108B10888EEC80E83E0D81EE11C4D
:10061000F11C81149104A104B10429F7FF90EF901B
:10062000DF90CF90BF90AF909F908F9008952F92C2
:100630003F924F925F926F927F928F929F92AF9272
:10064000BF92CF92DF92EF92FF920F931F93CF93BF
:10065000DF93CDB7DEB7C857D1090FB6F894DEBF28
:100660000FBECDBFE9969FAF8EAFE9971A01DC01AF
:1006700018960D911D912D913C911B9761960CAF91
:100680001DAF2EAF3FAF61971C960D911D912D911F
:100690003C911F9709831A832B833C8350960D91BD
:1006A0001D912D913C9153970D831E832F83388785
:1006B00054960D911D912D913C91579709871A875A
:1006C0002B873C87E6966FAFE697E7967FAFE79775
:1006D000A85ABF4F6396BFAFAEAF6397FC01E45A11
:1006E000FF4F6596FFAFEEAF65978C01005A1F4F25
:1006F00067961FAF0EAF67979C012C593F4F6996C5
:100700003FAF2EAF699788599F4F6B969FAF8EAFC3
:100710006B97E996AEADBFADE997A459BF4F6D9603
:10072000BFAFAEAF6D97E996EEADFFADE997E0597B
:10073000FF4F6F96FFAFEEAF6F97E9960EAD1FAD0F
:10074000E9970C581F4FA1961FAF0EAFA197E996DE
:100750002EAD3FADE99728583F4FA3963FAF2EAF40
:10076000A397E9968EAD9FADE99784589F4FA596C4
:100770009FAF8EAFA597E996AEADBFADE997A058F4
:10078000BF4FA796BFAFAEAFA797E996EEADFFAD4F
:10079000E997EC57FF4FA996FFAFEEAFA997E996FF
:1007A0000EAD1FADE99708571F4FAB961FAF0EAFA9
:1007B000AB97E9962EAD3FADE99724573F4FAD96E5
:1007C0003FAF2EAFAD97E9968EAD9FADE9978057BD
:1007D0009F4FAF969FAF8EAFAF97E996AEADBFADCF
:1007E000E997AC56BF4FE196BFAFAEAFE197E79642
:1007F000AEADBFADE7970D911D912D913C910D8749
:100800001E872F87388B6396EEADFFAD639700830D
:1008100011832283338361968CAD9DADAEADBFADA8
:10082000619788589B45A549B842800F911FA21F28
:10083000B31F4D815E816F81788509851A852B856F
:100840003C85402751276227732709811A812B8114
:100850003C81402351236223732309851A852B850C
:100860003C854027512762277327840F951FA61FB9
:10087000B71F8C019D0147E0000F111F221F331F7E
:100880004A95D1F7AC01BD01E9E176956795579599
:100890004795EA95D1F7402B512B622B732B898119
:1008A0009A81AB81BC81480F591F6A1F7B1FE79655
:1008B000AEADBFADE79714960D911D912D913C9172
:1008C0001797098B1A8B2B8B3C8B6596EEADFFAD82
:1008D0006597008311832283338389859A85AB854D
:1008E000BC858A5A9844A843B741800F911FA21F24
:1008F000B31FC980DA80EB80FC800D811E812F81BF
:100900003885C026D126E226F326C422D522E62247
:10091000F722C026D126E226F3268C0D9D1DAE1DA2
:10092000BF1D8C019D01FCE0000F111F221F331F12
:10093000FA95D1F76C017D01A4E1F694E794D79480
:10094000C794AA95D1F7C02AD12AE22AF32AC40E65
:10095000D51EE61EF71EE796AEADBFADE79718961B
:100960008D919D910D90BC91A02D8D8B9E8BAF8B09
:10097000B88F6796EEADFFAD679780839183A283B2
:10098000B3838D819E81AF81B88585529F48AF4DDD
:10099000BB4D0D891E892F89388D800F911FA21F95
:1009A000B31F49805A806B807C804426552666267A
:1009B00077264C205D206E207F2009811A812B81B3
:1009C0003C814026512662267326840D951DA61D66
:1009D000B71D8C019D01EFE036952795179507957A
:1009E000EA95D1F72C013D01F1E1440C551C661C40
:1009F000771CFA95D1F7402A512A622A732A4C0CA7
:100A00005D1C6E1C7F1CE796AEADBFADE7971C96D4
:100A10008D919D910D90BC91A02D898F9A8FAB8F58
:100A2000BC8F6996EEADFFAD699780839183A283F9
:100A3000B38389819A81AB81BC8182519143A24465
:100A4000BE43098D1A8D2B8D3C8D800F911FA21FE7
:100A5000B31F8A019B010C251D252E253F2504214E
:100A60001521262137210427152726273727800F10
:100A7000911FA21FB31F4C015D011AE0B694A79409
:100A8000979487941A95D1F78C019D0186E1000F08
:100A9000111F221F331F8A95D1F7082919292A29E6
:100AA0003B29040D151D261D371DE796AEADBFADC4
:100AB000E79750968D919D910D90BC91A02D8D8FB3
:100AC0009E8FAF8FB8A36B96EEADFFAD6B97808313
:100AD0009183A283B3838155904FA348BA40840F7A
:100AE000951FA61FB71FB701A601442555256625EA
:100AF000772540235123622373234C255D256E25E2
:100B00007F25840F951FA61FB71F4C015D0147E08D
:100B1000880C991CAA1CBB1C4A95D1F7AC01BD01DD
:100B2000E9E17695679557954795EA95D1F7482974
:100B300059296A297B29400F511F621F731FE796AD
:100B4000AEADBFADE79754968D919D910D90BC9140
:100B5000A02D89A39AA3ABA3BCA36D96EEADFFAD68
:100B60006D9780839183A283B383865D9943A84761
:100B7000B84B8C0D9D1DAE1DBF1D73016201C026BB
:100B8000D126E226F326C422D522E622F722C42467
:100B9000D524E624F7248C0D9D1DAE1DBF1D4C01F0
:100BA0005D01FCE0880C991CAA1CBB1CFA95D1F7CE
:100BB0006C017D01A4E1F694E794D794C794AA95BB
:100BC000D1F7C828D928EA28FB28C40ED51EE61E6E
:100BD000F71EE796AEADBFADE79758968D919D9104
:100BE0000D90BC91A02D8DA39EA3AFA3B8A76F9627
:100BF000EEADFFAD6F9780839183A283B3838D5E4B
:100C0000994BAF4CB745840D951DA61DB71D280106
:100C1000390144265526662677264C205D206E2015
:100C20007F204026512662267326840D951DA61D21
:100C3000B71D4C015D01EFE0B694A794979487949B
:100C4000EA95D1F72C013D01F1E1440C551C661CDD
:100C5000771CFA95D1F7482859286A287B284C0C2C
:100C60005D1C6E1C7F1CE796AEADBFADE7975C9632
:100C70008D919D910D90BC91A02D89A79AA7ABA7AE
:100C8000BCA7A196EEADFFADA19780839183A2830F
:100C9000B3838F5F9A46A94BB240800F911FA21F6A
:100CA000B31F8A019B010C251D252E253F250421FC
:100CB0001521262137210427152726273727800FBE
:100CC000911FA21FB31F4C015D011AE0B694A794B7
:100CD000979487941A95D1F78C019D0186E1000FB6
:100CE000111F221F331F8A95D1F7082919292A2994
:100CF0003B29040D151D261D371DE796AEADBFAD72
:100D0000E79790968D919D910D90BC91A02D8DA708
:100D10009EA7AFA7B8ABA396EEADFFADA397808318
:100D20009183A283B38388529746AF47B649840F15
:100D3000951FA61FB71FB701A60144255525662597
:100D4000772540235123622373234C255D256E258F
:100D50007F25840F951FA61FB71F4C015D0147E03B
:100D6000880C991CAA1CBB1C4A95D1F7AC01BD018B
:100D7000E9E17695679557954795EA95D1F7482922
:100D800059296A297B29400F511F621F731FE7965B
:100D9000AEADBFADE79794968D919D910D90BC91AE
:100DA000A02D89AB9AABABABBCABA596EEADFFADBE
:100DB000A59780839183A283B38381559840AB4BE1
:100DC000B4478C0D9D1DAE1DBF1D73016201C02671
:100DD000D126E226F326C422D522E622F722C42415
:100DE000D524E624F7248C0D9D1DAE1DBF1D4C019E
:100DF0005D01FCE0880C991CAA1CBB1CFA95D1F77C
:100E00006C017D01A4E1F694E794D794C794AA9568
:100E1000D1F7C828D928EA28FB28C40ED51EE61E1B
:100E2000F71EE796AEADBFADE79798968D919D9171
:100E30000D90BC91A02D8DAB9EABAFABB8AFA7967C
:100E4000EEADFFADA79780839183A283B3838F54C8
:100E5000944AA109B109840D951DA61DB71D28014D
:100E6000390144265526662677264C205D206E20C3
:100E70007F204026512662267326840D951DA61DCF
:100E8000B71D4C015D01EFE0B694A7949794879449
:100E9000EA95D1F72C013D01F1E1440C551C661C8B
:100EA000771CFA95D1F7482859286A287B284C0CDA
:100EB0005D1C6E1C7F1CE796AEADBFADE7979C96A0
:100EC0008D919D910D90BC91A02D89AF9AAFABAF44
:100ED000BCAFA996EEADFFADA99780839183A283A5
:100EE000B38382549842A34AB647800F911FA21F32
:100EF000B31F8A019B010C251D252E253F250421AA
:100F00001521262137210427152726273727800F6B
:100F1000911FA21FB31F4C015D011AE0B694A79464
:100F2000979487941A95D1F78C019D0186E1000F63
:100F3000111F221F331F8A95D1F7082919292A2941
:100F40003B29040D151D261D371DE796AEADBFAD1F
:100F5000E797D0968D919D910D90BC91A02D2196F3
:100F60008CAF9DAFAEAFBFAF2197AB96EEADFFADEF
:100F7000AB9780839183A283B3834C015D01FEED27
:100F80008F1AFEEE9F0AFFE6AF0AF4E9BF0A840E4D
:100F9000951EA61EB71EB701A60144255525662538
:100FA000772540235123622373234C255D256E252D
:100FB0007F25480D591D6A1D7B1D4A015B0197E085
:100FC000880C991CAA1CBB1C9A95D1F7E9E176956F
:100FD000679557954795EA95D1F7482959296A2980
:100FE0007B29400F511F621F731FE796AEADBFAD47
:100FF000E797D4968D919D910D90BC91A02D25964B
:101000008CAF9DAFAEAFBFAF2597AD96EEADFFAD48
:10101000AD9780839183A283B3834C015D01FDE68C
:101020008F1AFEE89F0AF7E6AF0AF2E0BF0A8C0CBF
:101030009D1CAE1CBF1C73016201C026D126E22696
:10104000F326C422D522E622F722C424D524E6249E
:10105000F724C80CD91CEA1CFB1C46015701FCE014
:10106000880C991CAA1CBB1CFA95D1F7A4E1F69434
:10107000E794D794C794AA95D1F7C828D928EA2825
:10108000FB28C40ED51EE61EF71EE796AEADBFAD1B
:10109000E797D8968D919D910D90BC91A02D2996A2
:1010A0008CAF9DAFAEAFBFAF2997AF96EEADFFADA2
:1010B000AF9780839183A283B3834C015D01F2E7F4
:1010C0008F1AFCEB9F0AF6E8AF0AF9E5BF0A840C19
:1010D000951CA61CB71C28013901442655266626F6
:1010E00077264C205D206E207F20402651266226E8
:1010F0007326480C591C6A1C7B1C53014201BFE03B
:10110000B694A79497948794BA95D1F781E1440C4B
:10111000551C661C771C8A95D1F7482859286A28DF
:101120007B284C0C5D1C6E1C7F1CE796AEADBFADE2
:10113000E797DC968D919D910D90BC91A02D2D96F9
:101140008CAF9DAFAEAFBFAF2D97E196EEADFFADCB
:10115000E19780839183A283B3834C015D01FFED0E
:101160008F1AF7EF9F0AFBE4AF0AF6EBBF0A800E77
:10117000911EA21EB31E8A019B010C251D252E2542
:101180003F2504211521262137210427152726274D
:101190003727080D191D2A1D3B1D480159019AE0EA
:1011A000B694A794979487949A95D1F7E6E1000FA7
:1011B000111F221F331FEA95D1F7082919292A295F
:1011C0003B29040D151D261D371D89889A88AB887B
:1011D000BC888EE9881A8AED980A81EEA80A89E00F
:1011E000B80A840E951EA61EB71EB301A2014027A1
:1011F0005127622773274C215D216E217F214425D1
:10120000552566257725480D591D6A1D7B1D4A0108
:101210005B01F5E0880C991CAA1CBB1CFA95D1F760
:10122000ABE17695679557954795AA95D1F74829EB
:1012300059296A297B29400F511F621F731F8DA0F6
:101240009EA0AFA0B8A490EC891A9CE4990A9FEBE9
:10125000A90A9FE3B90A8C0C9D1CAE1CBF1C680137
:101260007901C426D526E626F726C420D520E62017
:10127000F720C026D126E226F326C80CD91CEA1C8A
:10128000FB1C46015701B9E0880C991CAA1CBB1C29
:10129000BA95D1F787E1F694E794D794C7948A95E5
:1012A000D1F7C828D928EA28FB28C40ED51EE61E87
:1012B000F71E89AC9AACABACBCACAFEA8A1AA5EA13
:1012C0009A0AA1EAAA0AA9EDBA0A840C951CA61CDE
:1012D000B71C2A013B014C245D246E247F2440224C
:1012E0005122622273224426552666267726480C10
:1012F000591C6A1C7B1C530142019EE0880C991CFE
:10130000AA1CBB1C9A95D1F7E2E176946794579496
:101310004794EA95D1F7482859286A287B284C0C2D
:101320005D1C6E1C7F1C8D849E84AF84B888B6E5DE
:101330008B1AB8E39B0AB9E4AB0AB6E1BB0A800E8C
:10134000911EA21EB31E9701860104251525262590
:10135000372504231523262337230C251D252E2569
:101360003F25080D191D2A1D3B1D48015901FCE0B0
:10137000B694A79497948794FA95D1F7A4E1000FB7
:10138000111F221F331FAA95D1F7082919292A29CD
:101390003B29040D151D261D371D89A09AA0ABA061
:1013A000BCA0E3EA8E1AEFEE9E0AE0EDAE0AE9E297
:1013B000BE0A840E951EA61EB71EB301A2014027C9
:1013C0005127622773274C215D216E217F214425FF
:1013D000552566257725480D591D6A1D7B1D4A0137
:1013E0005B01B5E0880C991CAA1CBB1CBA95D1F70F
:1013F0008BE176956795579547958A95D1F748295A
:1014000059296A297B29400F511F621F731F8DA81C
:101410009EA8AFA8B8ACFDEA8F1AFBEE9F0AFBEBC3
:10142000AF0AFDEFBF0A8C0C9D1CAE1CBF1C6801EF
:101430007901C426D526E626F726C420D520E62045
:10144000F720C026D126E226F326C80CD91CEA1CB8
:10145000FB1C4601570199E0880C991CAA1CBB1C77
:101460009A95D1F7E7E1F694E794D794C794EA9573
:10147000D1F7C828D928EA28FB28C40ED51EE61EB5
:10148000F71E2D968CAC9DACAEACBFAC2D978FE704
:10149000881A89E1980A8EE5A80A87E2B80A840CBE
:1014A000951CA61CB71C2A013B014C245D246E240C
:1014B0007F2440225122622273224426552666262A
:1014C0007726480C591C6A1C7B1C53014201FEE024
:1014D000880C991CAA1CBB1CFA95D1F7A2E1769442
:1014E000679457944794AA95D1F7482859286A28B1
:1014F0007B284C0C5D1C6E1C7F1C8D8C9E8CAF8CD5
:10150000B8A098E3891A94E0990A9CE2A90A98E1A4
:10151000B90A800E911EA21EB31E970186010425F2
:1015200015252625372504231523262337230C25A7
:101530001D252E253F25080D191D2A1D3B1D48017F
:101540005901BCE0B694A79497948794BA95D1F7C3
:1015500084E1000F111F221F331F8A95D1F708293C
:1015600019292A293B29040D151D261D371D89A877
:101570009AA8ABA8BCA8AAE18A1AA2E39A0AAEE18B
:10158000AA0AAEEDBA0A840E951EA61EB71EB301B6
:10159000A20140275127622773274C215D216E212C
:1015A0007F214425552566257725480D591D6A1D3F
:1015B0007B1D4A015B0195E0880C991CAA1CBB1C91
:1015C0009A95D1F7EBE17695679557954795EA950A
:1015D000D1F7482959296A297B29400F511F621FD9
:1015E000731F29968CAC9DACAEACBFAC2997BAE208
:1015F0008B1AB8EF9B0AB8ECAB0ABCE3BB0A8C0CA5
:101600009D1CAE1CBF1C68017901C426D526E626A8
:10161000F726C420D520E620F720C026D126E226D2
:10162000F326C80CD91CEA1CFB1C46015701F9E043
:10163000880C991CAA1CBB1CFA95D1F7A7E1F6945B
:10164000E794D794C794AA95D1F7C828D928EA284F
:10165000FB28C40ED51EE61EF71E898C9A8CAB8C17
:10166000BC8CE9E78E1AE2EF9E0AEAE2AE0AEBE0F2
:10167000BE0A840C951CA61CB71C2A013B014C24F5
:101680005D246E247F24402251226222732244264C
:10169000552666267726480C591C6A1C7B1C53016C
:1016A0004201BEE0880C991CAA1CBB1CBA95D1F75C
:1016B00082E176946794579447948A95D1F74828A5
:1016C00059286A287B284C0C5D1C6E1C7F1C8DA43D
:1016D0009EA4AFA4B8A8F3E18F1AFBEE9F0AF5EA27
:1016E000AF0AFAEBBF0A800E911EA21EB31E97012D
:1016F00086010425152526253725042315232623B1
:1017000037230C251D252E253F25080D191D2A1DC3
:101710003B1D480159019CE0B694A7949794879487
:101720009A95D1F7E4E1000F111F221F331FEA95AC
:10173000D1F7082919292A293B29040D151D261D31
:10174000371D25968CAC9DACAEACBFAC25978BEF0E
:10175000881A86E1980A8CE1A80A86E5B80A840E00
:10176000951EA61EB71EB301A2014027512762276E
:1017700073274C215D216E217F2144255525662547
:101780007725480D591D6A1D7B1D4A015B01F5E057
:10179000880C991CAA1CBB1CFA95D1F7ABE1769575
:1017A000679557954795AA95D1F7482959296A29E8
:1017B0007B29400F511F621F731F8D889E88AF8841
:1017C000B88C98E0891A9CE5990A90E1A90A93E0FF
:1017D000B90A8C0C9D1CAE1CBF1C68017901C42683
:1017E000D526E626F726C420D520E620F720C026F9
:1017F000D126E226F326C80CD91CEA1CFB1C4601A4
:101800005701B9E0880C991CAA1CBB1CBA95D1F7EA
:1018100087E1F694E794D794C7948A95D1F7C828BE
:10182000D928EA28FB28C40ED51EE61EF71E89A477
:101830009AA4ABA4BCA4A7E28A1AADEF9A0AA0E9C5
:10184000AA0AA8E9BA0A840C951CA61CB71C2A018E
:101850003B014C245D246E247F24402251226222CD
:1018600073224426552666267726480C591C6A1C86
:101870007B1C530142019EE0880C991CAA1CBB1CD6
:101880009A95D1F7E2E17694679457944794EA9554
:10189000D1F7482859286A287B284C0C5D1C6E1CFF
:1018A0007F1C4601570184249524A624B724219641
:1018B0008CAD9DADAEADBFAD21978657934BA54D79
:1018C000B247800F911FA21FB31F9501840104230B
:1018D0001523262337230C251D252E253F25800F74
:1018E000911FA21FB31F8C019D01FCE03695279527
:1018F00017950795FA95D1F7E5960CAF1DAF2EAF6A
:101900003FAFE5978C019D01A4E1000F111F221F3D
:10191000331FAA95D1F7E5968CAD9DADAEADBFADA9
:10192000E597082B192B2A2B3B2B040D151D261D83
:10193000371D89A19AA1ABA1BCA18E5B964CA54095
:10194000B109840F951FA61FB71F80269126A226D6
:10195000B326880E991EAA1EBB1ED501C40144E001
:10196000880F991FAA1FBB1F4A95D1F75CE1B69457
:10197000A794979487945A95D1F7882A992AAA2AE6
:10198000BB2A800E911EA21EB31E4DA55EA56FA59B
:1019900078A94F5759406E4878474C0D5D1D6E1D14
:1019A0007F1D73016201C026D126E226F326C824DA
:1019B000D924EA24FB24C40ED51EE61EF71EB70167
:1019C000A601EBE0440F551F661F771FEA95D1F77C
:1019D000F5E1F694E794D794C794FA95D1F7C42A21
:1019E000D52AE62AF72AC80CD91CEA1CFB1C49ADEB
:1019F0005AAD6BAD7CAD4E5D5E4962467249440E98
:101A0000551E661E771EB901A801482559256A256D
:101A10007B254C255D256E257F25440E551E661EB3
:101A2000771ED20123013D014C0C5D1C6E1C7F1CF6
:101A300029964CAD5DAD6EAD7FAD2997445F574C97
:101A40006A417240400F511F621F731F950184014C
:101A50000C251D252E253F25042515252625372552
:101A6000040F151F261F371FB901A801A9E076959D
:101A7000679557954795AA95D1F7B7E1000F111FC4
:101A8000221F331FBA95D1F7042B152B262B372B8A
:101A9000040D151D261D371D49895A896B897C89BE
:101AA0004C5B554161447B45480D591D6A1D7B1DAA
:101AB0004601570184249524A624B7248026912624
:101AC000A226B326840E951EA61EB71EB501A4013C
:101AD00084E0440F551F661F771F8A95D1F79CE15C
:101AE000B694A794979487949A95D1F7842A952AC7
:101AF000A62AB72A800E911EA21EB31E4D8D5E8DA2
:101B00006F8D78A1475550436142744BC40ED51E6A
:101B1000E61EF71EB301A201402751276227732753
:101B2000482559256A257B254C0D5D1D6E1D7F1DA1
:101B3000DB01CA01EBE0880F991FAA1FBB1FEA95C2
:101B4000D1F7F5E17695679557954795FA95D1F7D1
:101B5000482B592B6A2B7B2B480D591D6A1D7B1D69
:101B6000C9A4DAA4EBA4FCA4B0EACB1AB4EBDB0A58
:101B7000B4E4EB0AB9E0FB0A4C0C5D1C6E1C7F1C44
:101B800068017901C824D924EA24FB24C426D52677
:101B9000E626F7264C0C5D1C6E1C7F1CF20123010F
:101BA0003F01440E551E661E771ECDA8DEA8EFA885
:101BB000F8ACF0E9CF1AF3E4DF0AF0E4EF0AF1E45D
:101BC000FF0AC00ED11EE21EF31E950184010427F8
:101BD00015272627372704251525262537250C0DFB
:101BE0001D1D2E1D3F1D68017901A9E0F694E794A3
:101BF000D794C794AA95D1F7B7E1000F111F221F00
:101C0000331FBA95D1F70C291D292E293F29040D20
:101C1000151D261D371D2596CCACDDACEEACFFACFA
:101C200025978AE3C81A81E8D80A84E6E80A87ED8E
:101C3000F80AC80CD91CEA1CFB1C4A015B0184246D
:101C40009524A624B72480269126A226B3268C0CA0
:101C50009D1CAE1CBF1C7501640184E0CC0CDD1C16
:101C6000EE1CFF1C8A95D1F79CE1B694A79497943B
:101C700087949A95D1F78C289D28AE28BF28800E8E
:101C8000911EA21EB31ECD84DE84EF84F88896E0F8
:101C9000C91A98EDD90A9EE5E90A95E1F90AC40E38
:101CA000D51EE61EF71EB301A20140275127622769
:101CB0007327482559256A257B254C0D5D1D6E1D12
:101CC0007F1D6A017B01EBE0CC0CDD1CEE1CFF1CD0
:101CD000EA95D1F7F5E17695679557954795FA9589
:101CE000D1F74C295D296E297F29480D591D6A1DA0
:101CF0007B1DC98CDA8CEB8CFC8CABE7CA1AAFEC81
:101D0000DA0AA0E1EA0AABE2FA0A4C0C5D1C6E1C8E
:101D10007F1C68017901C824D924EA24FB24C42645
:101D2000D526E626F7264C0C5D1C6E1C7F1CF201A6
:101D300023013F01440E551E661E771ECDA0DEA076
:101D4000EFA0F8A4FBEFCF1AF2EEDF0AF7E7EF0AF5
:101D5000FBEFFF0AC00ED11EE21EF31E95018401A7
:101D60000427152726273727042515252625372557
:101D70000C0D1D1D2E1D3F1D68017901A9E0F69473
:101D8000E794D794C794AA95D1F7B7E1000F111F34
:101D9000221F331FBA95D1F70C291D292E293F295F
:101DA000040D151D261D371DC9A8DAA8EBA8FCA82F
:101DB00087ECC81A8FE2D80A8BE2E80A86E2F80AB2
:101DC000C80CD91CEA1CFB1C4A015B018424952425
:101DD000A624B72480269126A226B3268C0C9D1C0F
:101DE000AE1CBF1C7501640184E0CC0CDD1CEE1C34
:101DF000FF1C8A95D1F79CE1B694A7949794879499
:101E00009A95D1F78C289D28AE28BF28800E911E68
:101E1000A21EB31E2196CCACDDACEEACFFAC21977C
:101E20009BE1C91A96E6D90A94E2E90A99E1F90A0E
:101E3000C40ED51EE61EF71EB301A201402751278E
:101E400062277327482559256A257B254C0D5D1D82
:101E50006E1D7F1D6A017B01EBE0CC0CDD1CEE1CCE
:101E6000FF1CEA95D1F7F5E176956795579547956B
:101E7000FA95D1F74C295D296E297F29480D591D06
:101E80006A1D7B1D2D96CCACDDACEEACFFAC2D9766
:101E9000A8E0CA1AA3E8DA0AADE5EA0AA0EEFA0A4F
:101EA0004C0C5D1C6E1C7F1C68017901C824D92470
:101EB000EA24FB24C426D526E626F7264C0C5D1C16
:101EC0006E1C7F1CF20123013F01440E551E661E4D
:101ED000771ECD88DE88EF88F88CFBE9CF1AF9EA07
:101EE000DF0AF3E5EF0AFBE3FF0AC00ED11EE21E94
:101EF000F31E95018401042715272627372704257B
:101F00001525262537250C0D1D1D2E1D3F1D68018D
:101F10007901A9E0F694E794D794C794AA95D1F7EC
:101F2000B7E1000F111F221F331FBA95D1F70C29FB
:101F30001D292E293F29040D151D261D371DCD8471
:101F4000DE84EF84F8888CEBC81A8DEDD80A86ED14
:101F5000E80A8BE0F80AC80CD91CEA1CFB1C4A01F1
:101F60005B0180949094A094B094802A912AA22A34
:101F7000B32A84249524A624B7248C0C9D1CAE1C63
:101F8000BF1C7501640186E0CC0CDD1CEE1CFF1C3F
:101F90008A95D1F79AE1B694A794979487949A95E5
:101FA000D1F78C289D28AE28BF28800E911EA21E36
:101FB000B31EC9A4DAA4EBA4FCA499E6C91AD108FB
:101FC00095EDE90A9CEBF90AC40ED51EE61EF71E34
:101FD000B301A20140955095609570954829592903
:101FE0006A297B2940275127622773274C0D5D1DE5
:101FF0006E1D7F1D6A017B01EAE0CC0CDD1CEE1C2E
:10200000FF1CEA95D1F7F6E17695679557954795C8
:10201000FA95D1F74C295D296E297F29480D591D64
:102020006A1D7B1D2996CCACDDACEEACFFAC2997CC
:10203000A9E5CA1AACEDDA0AABE6EA0AA4E5FA0A9F
:10204000C40CD51CE61CF71C28013901409450949F
:1020500060947094442A552A662A772A4824592481
:102060006A247B244C0C5D1C6E1C7F1C7301620176
:10207000AFE0CC0CDD1CEE1CFF1CAA95D1F7B1E142
:102080007694679457944794BA95D1F74C285D2875
:102090006E287F28440E551E661E771EC9A0DAA042
:1020A000EBA0FCA0B7ECCB1ABFE5DB0ABCE6EB0A61
:1020B000B3E0FB0AC00ED11EE21EF31E950184019F
:1020C0000095109520953095042915292629372942
:1020D00004271527262737270C0D1D1D2E1D3F1DF4
:1020E000680179018BE0F694E794D794C7948A95B8
:1020F000D1F795E1000F111F221F331F9A95D1F7D9
:102100000C291D292E293F29040D151D261D371DBB
:102110002196CCACDDACEEACFFAC2197EDE3CE1A52
:10212000E6EADE0AE4EAEE0AEAE9FE0AC80CD91C8D
:10213000EA1CFB1C4A015B0180949094A094B0942B
:10214000802A912AA22AB32A84249524A624B7247B
:102150008C0C9D1CAE1CBF1C75016401E6E0CC0C10
:10216000DD1CEE1CFF1CEA95D1F7FAE1B694A794AA
:1021700097948794FA95D1F78C289D28AE28BF288C
:10218000800E911EA21EB31EC98CDA8CEB8CFC8CC7
:10219000FEE6CF1AF3E3DF0AF3EFEF0AF0E7FF0AF8
:1021A000C40ED51EE61EF71EB301A2014095509540
:1021B00060957095482959296A297B29402751271C
:1021C000622773274C0D5D1D6E1D7F1D6A017B010B
:1021D000AAE0CC0CDD1CEE1CFF1CAA95D1F7B6E1E1
:1021E0007695679557954795BA95D1F74C295D290E
:1021F0006E297F29480D591D6A1D7B1DCDA8DEA8BB
:10220000EFA8F8AC83E8C81A8BE0D80A80E1E80AA6
:10221000F108C40CD51CE61CF71C280139014094B8
:10222000509460947094442A552A662A772A482448
:1022300059246A247B244C0C5D1C6E1C7F1C73018A
:1022400062018FE0CC0CDD1CEE1CFF1C8A95D1F7DF
:1022500091E176946794579447949A95D1F74C28D6
:102260005D286E287F28440E551E661E771EC9887D
:10227000DA88EB88FC889FE2C91A92EAD90A9BE7C0
:10228000E90A9AE7F90AC00ED11EE21EF31E950173
:10229000840100951095209530950429152926294B
:1022A000372904271527262737270C0D1D1D2E1D1E
:1022B0003F1D68017901EBE0F694E794D794C79449
:1022C000EA95D1F7F5E1000F111F221F331FFA9590
:1022D000D1F70C291D292E293F29040D151D261D76
:1022E000371DCDA4DEA4EFA4F8A8A1EBCA1AA1E87B
:1022F000DA0AA7E5EA0AA0E9FA0AC80CD91CEA1C1E
:10230000FB1C4A015B0180949094A094B094802AB5
:10231000912AA22AB32A84249524A624B7248C0CBB
:102320009D1CAE1CBF1C75016401A6E0CC0CDD1C1D
:10233000EE1CFF1CAA95D1F7BAE1B694A794979426
:102340008794BA95D1F78C289D28AE28BF28800E97
:10235000911EA21EB31E2D968CAD9DADAEADBFAD30
:102360002D9780529941A34DB140840F951FA61F10
:10237000B71FB301A201409550956095709548290B
:1023800059296A297B294027512762277327840FFF
:10239000951FA61FB71F6C017D014AE0CC0CDD1C08
:1023A000EE1CFF1C4A95D1F7AC01BD01E6E1769524
:1023B000679557954795EA95D1F74C295D296E2980
:1023C0007F29480D591D6A1D7B1D8DA19EA1AFA1BE
:1023D000B8A58C5E9C4BAE4FBC45840D951DA61DCB
:1023E000B71D280139014094509460947094442A98
:1023F000552A662A772A482459246A247B24840D86
:10240000951DA61DB71D6C017D01FFE0CC0CDD1CE8
:10241000EE1CFF1CFA95D1F72C013D01A1E1769449
:10242000679457944794AA95D1F74C285D286E2855
:102430007F28440E551E661E771E25968CAD9DADD9
:10244000AEADBFAD25978F559E4EA74FB14B800FB8
:10245000911FA21FB31F950184010095109520952F
:1024600030950429152926293729042715272627D9
:102470003727800F911FA21FB31F6C017D011BE046
:10248000F694E794D794C7941A95D1F78C019D01DF
:1024900085E1000F111F221F331F8A95D1F70C29E8
:1024A0001D292E293F29040D151D261D371D8D8D33
:1024B0009E8DAF8DB8A18E579148AC4AB840880D1B
:1024C000991DAA1DBB1D4A015B0180949094A094A4
:1024D000B094802A912AA22AB32A84249524A6247F
:1024E000B724880D991DAA1DBB1D6C017D01E6E076
:1024F000CC0CDD1CEE1CFF1CEA95D1F74C015D01F4
:10250000FAE1B694A79497948794FA95D1F78C281A
:102510009D28AE28BF28800E911EA21EB31E89AD35
:102520009AADABADBCAD8B5C9D40A54CB244840F65
:10253000951FA61FB71FB301A20140955095609546
:102540007095482959296A297B29402751276227F4
:102550007327840F951FA61FB71F6C017D014AE0EA
:10256000CC0CDD1CEE1CFF1C4A95D1F7AC01BD0163
:10257000E6E17695679557954795EA95D1F74C2909
:102580005D296E297F29480D591D6A1D7B1D8D8986
:102590009E89AF89B88D85549D42A842B54D840D62
:1025A000951DA61DB71D28013901409450946094D3
:1025B0007094442A552A662A772A482459246A2482
:1025C0007B24840D951DA61DB71D6C017D01FFE0C8
:1025D000CC0CDD1CEE1CFF1CFA95D1F72C013D0143
:1025E000A1E17694679457944794AA95D1F74C2823
:1025F0005D286E287F28440E551E661E771E89A909
:102600009AA9ABA9BCA98F569C42A947B441800F97
:10261000911FA21FB31F950184010095109520956D
:102620003095042915292629372904271527262717
:102630003727800F911FA21FB31F6C017D011BE084
:10264000F694E794D794C7941A95D1F78C019D011D
:1026500085E1000F111F221F331F8A95D1F70C2926
:102660001D292E293F29040D151D261D371D619694
:102670008CAD9DADAEADBFAD6197880D991DAA1D06
:10268000BB1D61968CAF9DAFAEAFBFAF6197898127
:102690009A81AB81BC81800F911FA21FB31F8983D8
:1026A0009A83AB83BC830D811E812F813885040DF5
:1026B000151D261D371D0D831E832F8338878985A1
:1026C0009A85AB85BC85840F951FA61FB71F898788
:1026D0009A87AB87BC87E796AEADBFADE797A05CA6
:1026E000BF4FE796BFAFAEAFE797B0E42B1A310804
:1026F00011F00C94F70361960CAD1DAD2EAD3FADFE
:102700006197E996AEADBFADE99718960D931D930D
:102710002D933C931B9709811A812B813C811C9638
:102720000D931D932D933C931F970D811E812F8137
:10273000388550960D931D932D933C93539709859F
:102740001A852B853C8554960D931D932D933C93B0
:102750005797E7968EAD9FADE797C858DF4F0FB6F6
:10276000F894DEBF0FBECDBFDF91CF911F910F91C7
:10277000FF90EF90DF90CF90BF90AF909F908F90A1
:102780007F906F905F904F903F902F9008958BE4D3
:1027900091E00E94F601892BD1F38BE491E00E9435
:1027A000380108956AE070E080E090E00E94E50260
:1027B0008BE491E00E94F601892B29F08BE491E0F3
:1027C0000E943801EFCF089585B190E2892785B93D
:1027D000089510926F0040910001509101016091A5
:1027E000020170910301411551056105710581F1E7
:1027F000DB01CA01E3E0880F991FAA1FBB1FEA95FE
:10280000D1F7009721E0A207B10540F421E0209321
:10281000450190934401809343010DC0009728E047
:10282000A207B105F8F482E0809345017F715093CF
:10283000440140934301809143019091440190935E
:10284000870080938600809145018061809381009C
:1028500084EE93E190933D0180933C0181E080936D
:102860006F000895009720E4A207B10558F423E013
:102870002093450146E0B695A795979587954A958B
:10288000D1F7C7CF0097A10521E0B20740F424E0BB
:1028900020934501892F9A2FAB2FBB27BACF0097E2
:1028A000A10524E0B20758F425E0209345012AE071
:1028B000B695A795979587952A95D1F7AACF85E0E4
:1028C000809345018FEF9FEFA4CFFC010190002082
:1028D000E9F73197AF01481B590BBC018BE491E03C
:1028E0000C94FC00CF93DF930E948502EC018DE2F3
:1028F00091E00E9465148C0F9D1FDF91CF91089588
:10290000CF93DF930E946514EC018DE291E00E9469
:1029100065148C0F9D1FDF91CF91089580E391E0A6
:102920000C9480148F929F92AF92BF92CF92DF92BD
:10293000EF92FF920F931F93CF93DF93CDB7DEB744
:10294000A1970FB6F894DEBF0FBECDBF6B017C011F
:10295000F7FE41C06DE28BE491E00E9438028C01E9
:1029600022273327A9012C193D094E095F0919A215
:10297000CE0181967C019AE0892E912CA12CB12C5C
:10298000CA01B901A50194010E941F19605DF701F8
:1029900062937F01211531054105510589F790E0CA
:1029A00080E0309719F0CF010E946514800F911FCD
:1029B000A1960FB6F894DEBF0FBECDBFDF91CF91C9
:1029C0001F910F91FF90EF90DF90CF90BF90AF904D
:1029D0009F908F900895AC019B0119A28E010F5D0D
:1029E0001F4F8AE0C82ED12CE12CF12CCA01B9016D
:1029F000A70196010E941F19605DF80162938F0183
:102A0000211531054105510589F790E080E03097A7
:102A100079F2CF010E946514CBCF1F920F920FB6AF
:102A20000F9211242F933F934F935F936F937F9354
:102A30008F939F93AF93BF93EF93FF938BE491E0BA
:102A40000E941602FF91EF91BF91AF919F918F91DC
:102A50007F916F915F914F913F912F910F900FBE9A
:102A60000F901F9018951F920F920FB60F9211247E
:102A70002F938F939F93EF93FF93E0915B01F091DE
:102A80005C018081E0916101F091620182FD1BC0D7
:102A90009081809164018F5F8F732091650182170F
:102AA00041F0E0916401F0E0E55BFE4F958F80938B
:102AB0006401FF91EF919F918F912F910F900FBE25
:102AC0000F901F9018958081F4CF1F920F920FB630
:102AD0000F9211242F933F938F939F93AF93BF93A4
:102AE0008091470190914801A0914901B0914A011C
:102AF00030913E0123E0230F2D3758F50196A11D9B
:102B0000B11D20933E018093470190934801A0930B
:102B10004901B0934A0180913F0190914001A091F9
:102B20004101B09142010196A11DB11D80933F0169
:102B300090934001A0934101B0934201BF91AF91A6
:102B40009F918F913F912F910F900FBE0F901F90EB
:102B5000189526E8230F0296A11DB11DD2CF1F9212
:102B60000F920FB60F9211242F933F934F935F93C1
:102B70006F937F938F939F93AF93BF93EF93FF9345
:102B8000E0913C01F0913D010995FF91EF91BF91DA
:102B9000AF919F918F917F916F915F914F913F91F5
:102BA0002F910F900FBE0F901F901895CF93DF932A
:102BB000CDB7DEB7CC5BD1090FB6F894DEBF0FBE40
:102BC000CDBF789484B5826084BD84B5816084BDB6
:102BD00085B5826085BD85B5816085BD80916E00BB
:102BE000816080936E0010928100809181008260EC
:102BF0008093810080918100816080938100809129
:102C000080008160809380008091B1008460809317
:102C1000B1008091B00081608093B00080917A0013
:102C2000846080937A0080917A00826080937A0039
:102C300080917A00816080937A0080917A00806828
:102C400080937A001092C100259A249885B1806300
:102C500085B9E0915B01F0915C0182E08083E091B5
:102C60005701F09158011082E0915901F0915A01F9
:102C70008FEC808310926301E0915F01F09160011D
:102C800086E08083E0915D01F0915E01808180614A
:102C90008083E0915D01F0915E0180818860808396
:102CA000E0915D01F0915E01808180688083E09118
:102CB0005D01F0915E0180818F7D808380E1809352
:102CC00081001092800084E08093450182E19AE7C0
:102CD00090934401809343019093870080938600F2
:102CE00084E1809381000E94E9131C993DC05E013C
:102CF00025E0A20EB11CECECEE2E82E890E00E94E2
:102D000072140E94C71389830E94C7138A830E948A
:102D1000C7138B830E94C7138C830E94D2137DE953
:102D2000C72E70E0D72E8E010F5F1F4FFF24F39444
:102D3000F6018491FF2059F08E25D8019C919813BB
:102D40004AC06FE070E080E090E00E94E502BFEFD3
:102D5000CB1ADB0A0F5F1F4F0A151B0549F7FF202F
:102D600061F281E0809346010E94D21384EB90E0EF
:102D70000E94721480914601882321F081EA90E03C
:102D80000E9472147E01E9E9EE0EF11C4E01F9E198
:102D90008F0E911C1E0129E5220E311C8BE491E05F
:102DA0000E94F601892B09F4E6C18BE491E00E94B0
:102DB0003801843609F4D0C184F48F3309F44FC04C
:102DC000833661F780914601811156C00E94D2136B
:102DD0000E948E14E3CFF12CBACF8C3699F0833752
:102DE000E9F60E949A0120914601222389F3FB0112
:102DF0003197E230F10508F0A6C1EE0FFF1FE25651
:102E0000FE4F22C061E070E080E090E00E949214EA
:102E100088E391E00E946514E5E8F1E06591749122
:102E2000CE0101960E94FE18CE0101960E948014E8
:102E300062E070E080E090E00E94921488E391E00C
:102E40000E946514E7E8F1E065917491CE01019666
:102E50000E94FE18CE0101960E9480149FCF89EF38
:102E600090E00E94721487ED90E00E9472148CEC46
:102E700090E00E94721492CF0E949A012B013C01B3
:102E800084E2D7011D928A95E9F784E691E00E94D9
:102E900072140E94D21387016701B3E2CB0ED11CDA
:102EA00058010E94C713F80181938F018A30B9F449
:102EB000D5011C920E94D213F7018081811113C0A9
:102EC0008EE291E00E94850268EC72E080E090E082
:102ED0000E9492148DE291E00E94651479CFCE1683
:102EE000DF06F1F6E7CF80E190E00E9447198C0100
:102EF00081E093E2A5E4B7E689879A87AB87BC8730
:102F000089E89BEAADECBFEE8D879E87AF87B88BD3
:102F10008EEF9CEDAAEBB8E9898B9A8BAB8BBC8BBF
:102F200086E794E5A2E3B0E18D8B9E8BAF8BB88FE3
:102F300019821A821B821C821D821E821F821886A1
:102F400080E4D101E82F1D92EA95E9F7D4011D92A2
:102F50008A95E9F7F70101900020E9F731976F01B1
:102F6000CE18DF08C601B0E0A0E089839A83AB8366
:102F7000BC83C701B0E4CB16D10450F0A601407C5D
:102F8000B701CE0101960E941703EFE3CE22DD24A4
:102F9000A601BC01C4010E946C1A49815A816B814F
:102FA0007C814F73552766277727DB01CA0101967D
:102FB000A11DB11D480D591D20E8FA01208340E4F0
:102FC00050E060E070E0481B590B6A0B7B0B483007
:102FD000510561057105C8F4489670E060E021E094
:102FE00030E02C0F3D1F820F931F0E94751A40E4A2
:102FF00050E0B401CE0101960E94170340E450E076
:1030000060E070E080E090E0DC01485051094896B3
:1030100070E060E0A1E0B0E0AC0FBD1F8A0F9B1F25
:103020000E94751A89819A81AB81BC8163E0880F07
:10303000991FAA1FBB1F6A95D1F789839A83AB8317
:10304000BC8362968FAF629763969FAF63976496D7
:10305000AFAF64976596BFAF65973D812E819F8125
:10306000888566963FAF669767962FAF6797689695
:103070009FAF689769968FAF699740E450E0B401BD
:10308000CE0101960E94170339852A859B858C8580
:10309000F80130832183928383833D852E859F852C
:1030A0008889348325839683878339892A899B89F4
:1030B0008C8930872187928783873D892E899F89D4
:1030C000888D348725879687878781E290E00E94E4
:1030D00047196C01C801D6019801205F3F4FFC01E0
:1030E0004191CF01E42FF0E054E0F595E7955A9532
:1030F000E1F7E45EFE4F50815C934F70E42FF0E007
:10310000E45EFE4F408111964C931197129628175A
:10311000390729F7D60190961C92C8010E94E3193D
:1031200063E471E0C6010E94F518892B09F050CEC6
:1031300040920001509201016092020170920301DD
:103140000E94E9132BCE89E891E00E94850267E393
:1031500072E080E090E0BCCE6091000170910101CE
:1031600080910201909103010E9492148DE291E0FE
:103170000E94651413CE80E090E0892B09F40ACEFA
:103180000E940202882309F401CE0E940000FECDB5
:10319000EBE4F1E01382128288EE93E0A0E0B0E06D
:1031A00084839583A683B7838EE091E091838083A7
:1031B00085EC90E09587848784EC90E097878687FC
:1031C00080EC90E0918B808B81EC90E0938B828BF4
:1031D00082EC90E0958B848B86EC90E0978B868BCD
:1031E000118E128E138E148E0895FB01DC018D91C9
:1031F000059080190110D9F3990B0895FB01DC01AA
:1032000005900D920020E1F708950E941019A59FE6
:10321000900DB49F900DA49F800D911D11240895D1
:10322000A29FB001B39FC001A39F700D811D112407
:10323000911DB29F700D811D1124911D0895A1E271
:103240001A2EAA1BBB1BFD010DC0AA1FBB1FEE1F20
:10325000FF1FA217B307E407F50720F0A21BB30B6B
:10326000E40BF50B661F771F881F991F1A9469F7E7
:1032700060957095809590959B01AC01BD01CF0143
:103280000895EE0FFF1F0590F491E02D09940F9320
:103290001F93CF93DF938230910510F482E090E08A
:1032A000E091EA01F091EB0130E020E0B0E0A0E035
:1032B000309799F42115310509F44AC0281B390BC0
:1032C00024303105D8F58A819B816115710589F11A
:1032D000FB0193838283FE0111C0408151810281F1
:1032E000138148175907E0F04817590799F41097C8
:1032F00061F012960C93129713961C933296CF019D
:10330000DF91CF911F910F9108950093EA011093DF
:10331000EB01F4CF2115310551F04217530738F076
:10332000A901DB019A01BD01DF01F801C1CFEF0165
:10333000F9CF9093EB018093EA01CDCFFE01E20F2C
:10334000F31F819391932250310939832883D7CF7A
:103350002091E8013091E901232B41F420910601ED
:10336000309107013093E9012093E8012091040195
:10337000309105012115310541F42DB73EB740913B
:10338000080150910901241B350BE091E801F091EF
:10339000E901E217F307A0F42E1B3F0B28173907AA
:1033A00078F0AC014E5F5F4F2417350748F04E0FA1
:1033B0005F1F5093E9014093E801819391939FCF60
:1033C000F0E0E0E09CCFCF93DF930097E9F0FC01C1
:1033D000329713821282A091EA01B091EB01ED01C4
:1033E00030E020E01097A1F420813181820F931FFB
:1033F0002091E8013091E9012817390709F061C0EF
:10340000F093E901E093E801DF91CF910895EA019B
:10341000CE17DF07E8F54A815B819E014115510512
:10342000B1F7E901FB83EA8349915991C40FD51F94
:10343000EC17FD0761F4808191810296840F951F3E
:10344000E90199838883828193819B838A83F0E059
:10345000E0E012968D919C9113970097B9F52D910C
:103460003C911197CD010296820F931F2091E801A4
:103470003091E9012817390739F6309751F5109244
:10348000EB011092EA01B093E901A093E801BCCFEF
:10349000D383C28340815181840F951FC817D907F8
:1034A00061F44E5F5F4F88819981480F591F5183A6
:1034B00040838A819B81938382832115310509F0A2
:1034C000B0CFF093EB01E093EA019ECFFD01DC0168
:1034D000C0CF13821282D7CFFB01DC0102C0019062
:1034E0000D9241505040D8F70895DC0101C06D9312
:0C34F00041505040E0F70895F894FFCFE1
:1034FC0020A107000000EC01800000000000380251
:10350C00FC002901A002F60138014C0130313233A4
:10351C00343536373839616263646566000D0A00EC
:0C352C0044656E6965642E003A200000C2
:00000001FF
